S021000074706D5F5457495F64656D6F5F6B69745F32303134303530352E73726563C4
S214400000085C00203D324000393240003932400022
S214400010393240003932400039324000000000009A
S21440002000000000000000000000000039324000E0
S214400030393240000000000039324000393240007A
S21440004039324000393240003932400039324000BF
S21440005039324000393240003932400039324000AF
S214400060393240003932400000000000B9134000E9
S214400070CD134000000000003932400039324000C5
S21440008000000000000000003932400039324000D5
S214400090393240003932400039324000393240006F
S2144000A039324000393240000000000000000000B5
S2144000B000000000393240003932400039324000FA
S2144000C03932400039324000B91D400010B5054C69
S2144000D0237833B9044B13B10448AFF300800123AF
S2144000E0237010BD0C1A002000000000800941005B
S2144000F008B5064B1BB106480649AFF300800648D4
S214400100036813B1054B03B1984708BD00000000D3
S21440011080094100101A00208009410000000000BC
S21440012010B500203E210A4B98470A4CA0470028AD
S214400130FCD0094B9847094A094BDA62094CA0475C
S2144001400028FCD00120084B9847084B984710BD24
S2144001504514400099144000C9144000023F0F0067
S21440016000040E40D514400095154000A9154000E7
S21440017010B50D480D4B984700203E210C4B984734
S2144001800C4CA0470028FCD00B4B98470B4A0C4B16
S2144001909A620C4CA0470028FCD010200A4B984787
S2144001A00A4B984710BD00BF000E27070534400095
S2144001B04514400099144000A9144000013F132004
S2144001C000040E40B9144000E1134000F1324000F4
S2144001D0024B1A78013AD2B21A707047C01C0020FF
S2144001E000207047002070471D4B1B7813F0800F8F
S2144001F012D003F06003202B28D1194B5B78212BBB
S21440020026D1174BDB88072B24D1154B154A9A600D
S21440021007229A810120704703F06003202B1BD1F0
S2144002200F4B5878202804D0222814BF00200120E5
S21440023070470B4BDB88072B10D1094B0A4A1A61D3
S214400240084A9A6007229A8101207047002070472A
S21440025000207047002070470020704700207047FD
S21440026004230020281A00206D024000704700BF7B
S21440027008B50023104A1370104A1380104AA12173
S214400280117020215170538093800221D1801381B8
S2144002900C4A4FF4E1311160137153710823937186
S2144002A0094B9847034620B1034A11780131C9B239
S2144002B01170184608BD00BFC01C0020701F0020EB
S2144002C0DC1C0020281A00201510400070B582B0B3
S2144002D0444B1B7813F0FF0F40F08280424B984708
S2144002E030B1424B1C88424B9847844206D177E057
S2144002F03E4B1C883F4B9847844271D0EFF31083A7
S214400300D3F1010538BF002572B6BFF35F8F0022D8
S214400310394B1A70394B1C78E4B2394B33F81430E9
S214400320DBB9384B1A8801321A802F4B984718B9D8
S214400330344B1B88632B07D92B4B984768B1314BFE
S2144003401B88B3F5487F08D2002D49D001222A4B9E
S2144003501A70BFF35F8F62B642E00022294B1A80C4
S214400360294B1B7813F0FF0F06D1944214BF00228E
S2144003700122224B1A7003E0D4F1010438BF002456
S2144003800122184B1A7025B11B4B1A70BFF35F8FB2
S21440039062B625461A4B33F81440B4F5A07418BF1D
S2144003A0012464B1104B984720B1114B98470F4B2E
S2144003B0188007E00F4B98470C4B188002E000224D
S2144003C00A4B1A8005EB85060D4B33F815300F4A5D
S2144003D00092812021460E4A02EB86120D4CA04721
S2144003E002B070BDD41C002051294000C81C00201B
S2144003F0B9294000A9294000D0000020341A002026
S214400400381A0020D81C00206C1F00201904400019
S2144004103C1A0020052D400008B578B9084B1B78DB
S21440042013F0FF0F14BF00220122064B23F81200E0
S214400430054B1870054B1870054B984708BD00BF14
S214400440341A0020381A00206C1F0020D41C0020CC
S214400450CD02400008B50020014B984708BD00BFBC
S214400460CD02400008B5064B1A78013AD2B21A704F
S2144004701B78044B98470022034B1A7008BD00BFF8
S214400480301A002021104000CC1C0020EFF31083CF
S21440049072B6BFF35F8F0021094A1170094A10886F
S2144004A080B2094A1178094A32F81120101A2BB93D
S2144004B00122034B1A70BFF35F8F62B6704700BFCE
S2144004C0D0000020C41C0020D01C0020BC1C0020F3
S2144004D008B5034B9847003018BF012008BD00BF41
S2144004E08D04400010B582B0EFF31083D3F10103C2
S2144004F038BF002372B6BFF35F8F0021204A1170C9
S214400500204A1478E4B2204A127812F0FF0F07D13E
S2144005101E4A128892B21E4931F81410914208D9E8
S21440052053B30122164B1A70BFF35F8F62B600209A
S21440053023E00021154A11808C4214BF002101217E
S214400540104A11700121104A117023B10C4B1970DA
S214400550BFF35F8F62B600200E4B984704EB8404CF
S2144005600D4B0093022001210C4A02EB84124FF4FB
S214400570A0730B4CA04700E0002002B010BD00BFA7
S214400580D0000020D01C0020681F0020C41C002083
S214400590BC1C0020D104400035064000E81C00206A
S2144005A0052D400010B50024154B1C70154B1C70D3
S2144005B0154B1C70154B1C70154B1C805C80154BE6
S2144005C01C802046144B9847144B1C70144B1C70D0
S2144005D0144B1C80144B1C802046144B98470246F4
S2144005E058B1074B19780131C9B219701B78DBB284
S2144005F0012B02D101210E4B1970104610BD00BFD1
S214400600301A0020D41C00206C1F0020341A002012
S214400610381A0020C81C0020CD024000681F002069
S214400620D01C0020BC1C0020C41C0020E504400058
S214400630CC1C002010B582B0E8B9104B1B7813F0E4
S214400640FF0F14BF0023012369B999000B440C49DE
S2144006500091104601210B4A02EB83124FF4A0731F
S214400660094CA04707E0094A22F813100020084B1F
S2144006701870084B984702B010BD00BFD01C002031
S21440068035064000E81C0020052D4000BC1C00201C
S214400690681F0020E50440002DE9F047224B93F800
S2144006A00690B9F1090F14BF4FF000094FF0010949
S2144006B000201E4C804607461D4D1E4EEFF310810F
S2144006C072B6BFF35F8F27702B889BB23278D2B258
S2144006D021B901212170BFF35F8F62B6164931F808
S2144006E01210994207D8154B1B7813F0FF0FE5D12F
S2144006F00020BDE8F08702EB820203EB821210492D
S21440070011F802A040EA0A0A01339BB22B80404609
S2144007100C4B9847B9F1000F03D04FEA0A20C14668
S214400720CCE75046BDE8F087281A0020D0000020CD
S214400730C41C0020D01C0020BC1C0020CC1C002068
S214400740E81C0020E504400008B50020014B98470F
S21440075008BD00BF9906400010B4EFF3108472B68F
S214400760BFF35F8F0022184B1A70184B1978C9B226
S214400770174A32F81130D1F1010138BF002132F862
S2144007801100B3F5A07F11D1124A127812F0FF0F74
S2144007900CD1114A127812F0FF0F07D101220E4BEE
S2144007A01A700A4B19704FF4A07000232CB901211F
S2144007B0054A1170BFF35F8F62B61844C0F52070CB
S2144007C05DF8044B704700BFD0000020341A00206C
S2144007D0381A0020D41C00206C1F002008B5034B9C
S2144007E09847003018BF012008BD00BF5907400099
S2144007F02DE9F0410C461C4B9E79092E14BF00266D
S21440080001261A4D1A4FDFF878800020A84730B9E5
S214400810184B1B7813F0FF0FF7D1BDE8F081EFF3CC
S214400820108172B6BFF35F8F00233B7098F800309C
S214400830DBB2114830F8132002F1010C20F813C047
S21440084003EB830302EB83120C4B9C5421B9012328
S2144008503B70BFF35F8F62B616B124120026D4E712
S2144008600120BDE8F08100BF281A0020DD074000C7
S214400870D0000020CC1C0020381A00203C1A002053
S214400880341A002008B501460020014B984708BDA1
S214400890F10740000F4B1B681B685A881A440378C0
S2144008A01844904210D24378042B0FD08B4205D187
S2144008B070474378042B0BD08B420AD003781844F9
S2144008C09042F6D3002070470020704700207047C3
S2144008D000207047741F002008B5034B987800F03E
S2144008E07F00024B984708BD04230020552940004E
S2144008F010B4164B1B7803B3154B1B681B681A794C
S21440090082421CD9134A13605C881C44A34218D206
S2144009105A78042A09D19A78824206D1DA788A42ED
S21440092003D10C4A136001200CE01A781344A3420A
S214400930EED3084A1360002004E0002002E00020C6
S21440094000E000205DF8044B704700BF7E1F00208B
S214400950741F0020801F00202DE9F8430446002124
S214400960124B98478046E8B1114B1B685B6853F8BA
S2144009702490D9F80C309847014620460B4B9847B0
S214400980804678B10B4B1C6805260B4D0B4F204616
S2144009903146A847044610B18078B847F7E7D9F8FB
S2144009A0043098474046BDE8F88300BFF108400051
S2144009B0741F0020801F002095084000CD2A40006C
S2144009C02DE9F0418046104B98470346C8B10F4B7F
S2144009D01C6805260E4D0F4F20463146A847044654
S2144009E038B18078E178A288B84703460028F3D12A
S2144009F007E0094B1B685B6853F828301B6898472C
S214400A0003461846BDE8F081F1084000801F0020EC
S214400A1095084000C9294000741F002008B5014BC6
S214400A20984708BD9928400070B50D4B1B7883B198
S214400A300C4B1B681B681B795BB100240A4E094DA2
S214400A402046B0470134E4B22B681B681B79A342AA
S214400A50F6D80022024B1A700122044B1A8070BD51
S214400A607E1F0020741F0020590940007C1F002074
S214400A7038B50C4B1B789BB10B4B1B681A68127928
S214400A8072B10024084D5B6853F824301B6903B1EB
S214400A9098470134E4B22B681A681279A242F2D819
S214400AA038BD00BF7E1F0020741F00202DE9F04196
S214400AB0854B00229A811A615A611B7813F0800F89
S214400AC000F00A82804AD288002A40F00982FFE17C
S214400AD013F01F0340F082807B49497806290DD0E9
S214400AE0082971D0002979D1022A05D177480221F8
S214400AF0774B9847012497E1002495E1724B5A883A
S214400B00130A013B0E2B55D8DFE803F0080F2B5491
S214400B105454545454545454545422006D4B1B68EB
S214400B20184619786A4B98473BE0D2B2694B1B6827
S214400B305B7C934240D9674B5B6853F8323018462B
S214400B405988634B9847604B9B6802225A7028E04E
S214400B50604B9B68002B31D0184659885C4B9847B1
S214400B601FE0D2B2012A08D012B1022A08D027E0EC
S214400B7059480421564B984713E0584C092001E049
S214400B80574C0320574A00230232E15C5180013320
S214400B90D9B28142F8D341000231534801704C4BE0
S214400BA09847494BDA889B8993420BD9464B9A81A2
S214400BB0012439E1002437E1002435E1002433E103
S214400BC0002431E101242FE1012A05D147480121C3
S214400BD03F4B9847012427E1002425E1012B2AD1E9
S214400BE0394949780A2926D1012A1ED13F4B1B781C
S214400BF0EBB1354B1D793E4B1E6833681B79AB42D3
S214400C0017D9284600213B4B98470446002800F059
S214400C100B81736853F82530DB689847364B18705D
S214400C20184601212A4B9847FEE00024FCE00024A9
S214400C30FAE00024F8E0022B40F0F880224B5B7884
S214400C40002B40F0EC80022A0BD11F4B18792B4B1F
S214400C5098472B4B1880184602211D4B9847012475
S214400C60E2E00024E0E013F01F0340F08D80164AD7
S214400C705278013A082A00F28780DFE812F0130023
S214400C808500D20085000900850085008500450066
S214400C900D4BDB8823B91B4A0B4B1A610124C3E07A
S214400CA00024C1E0084BDB8853B9074B5B88012B17
S214400CB008D1064B1A8822F002021A800124B3E0BB
S214400CC00024B1E00024AFE0042300207C1F002075
S214400CD0BD29400034000020CC000020AC0000209D
S214400CE0A8000020B6000020B80000207E1F00208C
S214400CF0741F0020F1084000781F0020052B40009C
S214400D007A1F0020D9084000794BDB88002B31D170
S214400D10784B984700282FD0754B9A78764B1B68AF
S214400D205B7C9A422ADC754B9847714B9B78744A99
S214400D3013702BB303F10053013B6F4A526802EB2A
S214400D40C3007049086052F833301B79D3B1002590
S214400D502F466D4E884628463946B04704460028FA
S214400D6062D00135EDB2D8F800301B681B79AB4233
S214400D70F1D859E0002457E0002455E0002453E021
S214400D80012451E001244FE0012B1CD1584A5278EF
S214400D900B2A18D1564BDB888BB9594B1B7883B13D
S214400DA0534B1D795E882846584B98470446002882
S214400DB03AD02846F1B2544B9847044634E00024D3
S214400DC032E0002430E0022B30D1494B5B78012BD7
S214400DD002D0032B10D026E0454BDB8843B9444B6A
S214400DE05B883BB9424B1879494B984704461BE011
S214400DF0002419E0002417E03D4BDB885BB93C4BF0
S214400E005B8853B93A4C2079424B98472079424BFD
S214400E109847044608E0002406E0002404E0002446
S214400E2002E0002400E00024002C5DD1304B1B780B
S214400E3003F01F03012B1ED1314B1B78DBB12C4B2B
S214400E401C79304B1D682B681B79A34213D920466A
S214400E500021324B984770B16B6853F82450EB68CA
S214400E609847014620462D4B984720B1AB68984797
S214400E700446002838D11E4B1B7803F01F03022B74
S214400E8028D11F4B1B78FBB11E4B1B681A68127982
S214400E90E2B10025214FDFF86C805B6853F825608F
S214400EA0F368984701462846B8470446E0B1B36819
S214400EB098470446C0B90135EDB2D8F800301A68F4
S214400EC01279AA42E9D80FE000240DE000240BE096
S214400ED0002409E0002407E013F0600FA6D1C2E624
S214400EE013F0600FA2D1F3E52046BDE8F08100BFC5
S214400EF0042300208D29400034000020290A4000A9
S214400F007E1F0020741F0020C10940005909400080
S214400F102D2C4000592E4000452B4000F108400043
S214400F200B4B1B687BB9EFF310834BB972B6BFF31C
S214400F305F8F0022074B1A700122074B1A7002E09F
S214400F400022054B1A70024B1A6801321A6070472D
S214400F50841F0020D0000020881F0020084B1A68FD
S214400F60013A1A601B6853B9064B1B7813F0FF0F03
S214400F7005D00122044B1A70BFF35F8F62B67047EC
S214400F80841F0020881F0020D00000202DE9F0415B
S214400F900C46904660B9002A0EDD8F18094E0A4D61
S214400FA0306821462B6898470134BC42F8D106E0A9
S214400FB04FF0FF30BDE8F0810020BDE8F0814046AC
S214400FC0BDE8F081FC220020F422002008B5074B43
S214400FD01B7843B10846064B9847D0F1010038BF0E
S214400FE00020404208BD002008BD00BF891F0020E9
S214400FF08508400010B50C46044B1B780BB90B70A7
S21440100010BD034B9847207010BD00BF891F0020BD
S214401010490740000120014B18707047891F002087
S2144010200022014B1A707047891F002070B50024BB
S2144010300A4B1C600A4A0B4B1A600B4A0B4B1A6051
S2144010400B4B98470B4E3368986821460A4DA84785
S214401050336858682146A84770BD00BFFC22002070
S214401060CD0F4000F8220020F50F4000F42200206B
S2144010701D0A400090150020417340002DE9F041C4
S2144010800E461546013802280FD892B10024DFF8E4
S2144010903C800D4FD8F80000315D3B6898470028EB
S2144010A00ADB0134A542F5D10AE04FF0FF30BDE837
S2144010B0F0810020BDE8F0814FF0FF30BDE8F081C0
S2144010C02046BDE8F08100BFF8220020FC22002028
S2144010D00368090201F4706123F470630B430360F4
S2144010E0704700BF0068C0F30320704710B5044641
S2144010F0A1F10E03012B15D90C4B1B680C4803605D
S214401100120222F07F4222F0FF0242F0B442C9B2FD
S2144011100848201A18BF012011439847A06800F0DD
S2144011200E0010BD4FF0FF3010BD00BF080080001D
S2144011308C1F0020000A0E4010B44264B1F1C05F1C
S2144011402ED008D8B1F1006F14D0B1F1805F1DD019
S214401150002935D135E0B1F1205F32D003D8B1F166
S214401160005F27D02CE0B1F1405F2AD0B1F1605F3C
S21440117027D025E0016F046FD34321401940016713
S214401180416F446F21400B40436719E0036F1343A0
S2144011900367436F416F0B4023EA020343670FE048
S2144011A0036F016F0B4023EA02030367436F134349
S2144011B0436705E0036F13430367436F1343436777
S2144011C042605DF8044B7047416412F0010F14BF53
S2144011D04166016612F00A0F14BF0162416212F0C6
S2144011E0020F02D0C0F8801004E012F0080F18BFBB
S2144011F0C0F8841041610160704700BF10B441647C
S214401200019C0CB1416600E001660BB1016500E04F
S21440121041650AB1016300E04163016101605DF828
S214401220044B7047C06C7047806C704770B582B096
S2144012300D46440904F5001404F20774660201F0F2
S214401240F044B4F1005F47D009D8B4F1805F21D0B4
S214401250B4F1C05F2FD0B4F1006F6FD109E0B4F1A4
S214401260405F55D0B4F1605F52D0B4F1205F44D0B7
S21440127064E000F01F000124844030464FF00061D7
S2144012802246304B984715F0010F14BF74663466FB
S214401290012054E000F01F000124844030464FF007
S2144012A080512246274B984715F0010F14BF7466AD
S2144012B03466012043E000F01F000124844030469D
S2144012C04FF0C05122461F4B984715F0010F14BFF0
S2144012D074663466012032E000F01F00012484402A
S2144012E030464FF000512246164B984715F0010FF6
S2144012F014BF74663466012021E000F01F0101240B
S214401300304604FA01F12A460F4B9847204616E02D
S21440131000F01F01012405F0605205EA0403009323
S214401320304604FA01F1B2F1605F14BF0022012298
S214401330C5F38003054DA847204600E0002002B0D4
S21440134070BD00BF39114000C9114000FD1140007A
S2144013502DE9F04180460E46124B984705464046DA
S214401360114B9847054012D0104C54F80C3CB342F1
S2144013700AD154F8081C294206D0236830469847BC
S21440138054F8083C25EA03051034002DEDD1084BEF
S2144013901B6823B1074B1B680BB140469847BDE816
S2144013A0F08100BF2512400029124000A01F0020F7
S2144013B000230020901F002008B502480B21024B56
S2144013C0984708BD000E0E405113400008B502482D
S2144013D00C21024B984708BD00100E4051134000A8
S2144013E0174B1A6B22F07002104318639B6E13F073
S2144013F0080F09D14FF40063114901E0013B19D0B1
S2144014008A6E12F0080FF9D00D4B1A6B22F00302C9
S21440141042F002021A63986E10F008000CD14FF4A6
S2144014200063074901E0013B08D08A6E12F0080FBE
S214401430F9D0704701207047002070470120704760
S21440144000040E4038B111490B6A114A1A40114B3C
S21440145013430B6270470D4A136A23F45C1323F060
S214401460030343F45C1343F00103090289B20B43C0
S2144014701362936E13F0010FFBD0044A136A43F0D5
S2144014809B7343F480331362704700BF00040E40E2
S214401490FCFFC8FE02003701024B986E00F4803015
S2144014A0704700BF00040E404FF00052014B9A6256
S2144014B0704700BF00040E40024B986E00F00200DA
S2144014C0704700BF00040E400022014BDA627047AE
S2144014D000040E40024B986E00F00400704700BFB8
S2144014E000040E40222820D81F280DD8124B9A6997
S2144014F0012383401A40934219D0012303FA00F097
S2144015000D4B1861002070470B4BD3F8082120384C
S214401510012383401A4093420BD0012303FA00F084
S214401520054BC3F80001002070470120704700209B
S21440153070470020704700BF00040E40222820D885
S2144015401F280DD8124B9A69012383401A409342B4
S21440155019D1012303FA00F00D4B58610020704763
S2144015600B4BD3F808212038012383401A4093427E
S2144015700BD1012303FA00F0054BC3F80401002009
S214401580704701207047002070470020704700BF1A
S21440159000040E40000200F4706242F00102014B6B
S2144015A09A63704700040E408022014B1A607047D1
S2144015B000040E40034B1A6FC0F3120002431A6732
S2144015C0704700BF00040E40024B187880F00100C0
S2144015D0704700BF042000200B4659B1027801290D
S2144015E0C4BF417841EA0222022B05DD807840EAFA
S2144015F00220704700207047104670470F4B9942B4
S21440160019D84900B2FBF1F2043AFF2A07D9002361
S21440161001335208FF2A03D9072BF9D100E00023F3
S214401620110289B21B0403F4E0230B43D2B21A43DF
S2144016300261002070470120704700BF801A0600F4
S21440164038B504460D464FF0FF338362036A802365
S2144016500360036B082303602023036004230360B6
S21440166049682A68054B9847012814BF0020012086
S2144016706B7A012B04BF4023236038BDFD15400024
S2144016802DE9F84F05468E68CC68002C4BD00023D9
S21440169043604A68120202F4407242F48052087C68
S2144016A0000400F4FE0002436A60EB6008464968A6
S2144016B02B4B9847E860012C03D103232B60012174
S2144016C03AE001232B60002136E02B6A13F4807F3A
S2144016D02CD1012C05D100293DD1C5F800904146BA
S2144016E039E013F0020F15D0042C0FD1BCF1000FD7
S2144016F00CD0737963F30707337963F30F27BBB2D4
S214401700ABF800700A2B18BF9C1FD4462B6B137087
S214401710013C0132002CD8D12B6A13F0010FFBD0CC
S2144017202B6ABDE8F88F0120BDE8F88F0520BDE89C
S214401730F88F0520BDE8F88F2B6A13F48070F8D137
S21440174032464FF0010CDFF81CB04FF0000A4FF065
S2144017500209E046BDE713F0020FB6D0D6E700BF59
S214401760D9154000F62A002070B50446CD688E682C
S214401770002D34D000234360087C000400F4FE00B3
S2144017804A68120202F4407202436260E36008460E
S2144017904968174B9847E0600BE0236A13F4807F54
S2144017A01FD113F0040FF8D016F8013B6363013DD8
S2144017B007D0236A13F4807F15D113F0040FF3D1BA
S2144017C0EBE7236A13F480700FD113F0040FF8D0C0
S2144017D002232360236A13F0010FFBD070BD012063
S2144017E070BD052070BD052070BD052070BD00BFD2
S2144017F0D915400000B587B0002306AA02F8153D6B
S2144018000392012204928DF814108DF8043002934E
S21440181001A9024B984707B05DF804FB69174000E2
S214401820034658BB184A12782AB3EFF3108172B6B3
S214401830BFF35F8F154A1070154A90780138907044
S214401840C9B90121114A1170BFF35F8F62B612E029
S214401850EFF3108172B6BFF35F8F00200B4A107013
S2144018600B4A90780130907029B90121074A1170CF
S214401870BFF35F8F62B6044A13707047024A12780D
S214401880002AE5D0F7E700BF44200020D000002023
S214401890EC220020034A0023136153619381024ADD
S2144018A013707047042300204920002082B0052290
S2144018B00E4B1A700E4B1A6B0092009A42F04F0273
S2144018C00092009A42F020020092009A1A63002387
S2144018D00193019B132B06D800BF019B0133019354
S2144018E0019B132BF8D902B0704700BF4920002057
S2144018F00040034082B003220E4B1A700E4B1A6B08
S2144019000092009A42F04F020092009A42F0100273
S2144019100092009A1A6300230193019B132B06D86A
S21440192000BF019B01330193019B132BF8D902B0F2
S214401930704700BF492000200040034008B5024BD6
S2144019401B6903B1984708BD0423002070B58AB0D0
S214401950754B1B78032B1DD1744B1A6B0092009A63
S21440196042F04F020092009A22F001020092009A42
S2144019701A6300230193019B132B06D800BF019BDB
S21440198001330193019B132BF8D9694B9847694B58
S2144019909847C6E0684B1B88684A9489E41AA4B204
S2144019A0002C33D1664A11880B449BB21380634A9D
S2144019B0D2889A4202D0634B1B78EBB104225A4B32
S2144019C01A705A4B1A6B0292029A42F04F020292D7
S2144019D0029A22F001020292029A1A6300230393AB
S2144019E0039B132B00F29D8000BF039B01330393A0
S2144019F0039B132BF8D994E0504B5B696BB1984727
S214401A0058B100224C4B1A804C4B9C893F2C04D931
S214401A1000224C4B1A70402402E00122494B1A70B7
S214401A20464B9968444B1E88EFF31080D0F1010076
S214401A3038BF002072B6BFF35F8F0022424B1A7049
S214401A403A4B1B6B13F0020F01D124BB2DE028B19B
S214401A5001223D4B1A70BFF35F8F62B60422324BB1
S214401A601A70324B1A6B0492049A42F04F02049258
S214401A70049A22F001020492049A1A630023059302
S214401A80059B132B4DD800BF059B01330593059B43
S214401A90132BF8D945E031440B46244D13F8012B5F
S214401AA02A655A1AD2B2A242F8D33444224B1C803A
S214401AB01E4B1A6B0692069A42F04F020692069A00
S214401AC042F010020692069A1A6300230793079B79
S214401AD0132B06D800BF079B01330793079B132B96
S214401AE0F8D9124B1A6B0892089A42F04F020892A5
S214401AF0089A22F001020892089A1A630023099372
S214401B00099B132B06D800BF099B01330993099BF9
S214401B10132BF8D928B101220B4B1A70BFF35F8FF5
S214401B2062B60AB070BD00BF4920002000400340A6
S214401B303D19400095184000462000200423002010
S214401B400620002048200020D000002038B503465C
S214401B50447C14F0100F15D0447C6FF30414447486
S214401B6004687CB102F10C05074850F8250010F4D3
S214401B70806F18BF42F08002012914BF0020012068
S214401B809968A04738BD00BF0040034084B0421E5D
S214401B9002EB82022F4B03EB8202830003F14023C9
S214401BA003F54033196B01F0420142290ED0196B00
S214401BB011F0020F04D0517C6FF38301517409E099
S214401BC0517C012060F38301517424E0517C11F074
S214401BD00C0F20D1196B0091009941F04F010091F4
S214401BE0009921F0020100910099196300230193A6
S214401BF0019B132B06D800BF019B01330193019B29
S214401C00132BF8D918B3032821D0537C012161F354
S214401C10830353741BE0196B0291029941F04F0104
S214401C200291029921F04001029102991963002322
S214401C300393039B132B06D800BF039B01330393E8
S214401C40039B132BF8D9537C6FF38303537404B070
S214401C50704700BF082000202DE9F00783B00746F4
S214401C60461E06EB8606524B03EB8606737CC3F392
S214401C70810320B1032814BF0222012200E0012282
S214401C809A4240F38980F368B268934204D3747CE6
S214401C9014F0400F00F0828074681C44C3EB0209C5
S214401CA0328AC2F30902914526BF91464FF000089A
S214401CB04FF001084B44F360B9F1070F26D923468D
S214401CC0A9F1080A4FEADA0A04F1080C0CEBCA0C30
S214401CD0820002F1402202F540321D7815655D789B
S214401CE015659D781565DD7815651D7915655D79F1
S214401CF015659D791565DD79156508336345ECD125
S214401D000AF1010A04EBCA0409F00709B9F1000F09
S214401D1009D0A144274D14F8012B07F1140345F8C8
S214401D2023204C45F7D1737CC3F38102013262F322
S214401D3083037374E1B1800000F1402000F5403029
S214401D40036B0093009B43F04F030093009B43F0CC
S214401D5010030093009B036300230193019B132B06
S214401D6006D800BF019B01330193019B132BF8D982
S214401D70B8F1000F03D0737C6FF386137374F26868
S214401D80B3689A420CD3737C13F0400F0AD143F0E9
S214401D9080037374002006E0012004E0002002E087
S214401DA0012000E0012003B0BDE8F007704700BF07
S214401DB008200020004003402DE9F047B0B0944B87
S214401DC0984760B9934BDB6913F4807F07D172B6AE
S214401DD0BFF35F8F0022904B1A7000F015BD222093
S214401DE08E4B98478B4B9B6913F4006F0CD0894BF6
S214401DF0DB6913F4006F07D04FF40062854B1A621C
S214401E00874B984700F000BD824BDB6913F0010F0B
S214401E1000F0F1817F4B1B6B13F0040F00F0C08085
S214401E20804B1B781BB1804B9847804B9847794B2B
S214401E301B6BC3F30A43082B1CD0764B1A6B0292DB
S214401E40029A42F04F020292029A22F00402029252
S214401E50029A1A6300230393039B132B06D800BFF2
S214401E60039B01330393039B132BF8D9704B98477E
S214401E7000F0CABC6F4B03F1080066490A6D03F8D0
S214401E80012F8342FAD16C4B9847E0B9614B1A6BED
S214401E900492049A42F04F020492049A22F00402FA
S214401EA00492049A1A6300230593059B132B06D8C5
S214401EB000BF059B01330593059B132BF8D95C4B5C
S214401EC0984700F0A1BC5D4B93F90030002B3DDAFB
S214401ED0504B1A6B0692069A42F04F020692069AAA
S214401EE042F080020692069A1A6300230793079BE5
S214401EF0132B06D800BF079B01330793079B132B72
S214401F00F8D9444B1A6B0892089A42F04F0208924E
S214401F10089A22F004020892089A1A63002309934A
S214401F20099B132B06D800BF099B01330993099BD5
S214401F30132BF8D90023424A1380424A13800222C8
S214401F40384B1A70404B984700F05EBC314B1A6BCA
S214401F500A920A9A42F04F020A920A9A22F0040221
S214401F600A920A9A1A6300230B930B9B132B06D8EC
S214401F7000BF0B9B01330B930B9B132BF8D92F4BB6
S214401F80DB881BB9314B984700F03EBC00232C4AF7
S214401F9013802C4A13800122224B1A7000F034BC66
S214401FA01C4B1B6B13F0010F03D0274B984700F0D8
S214401FB02BBC184B1B6B13F0020F00F01781194B0C
S214401FC01B78012B44D0022B01D0042B02D1164B98
S214401FD0984701E0164B98470E4B1A6B0C920C9A9A
S214401FE042F04F020C920C9A22F002020C920C9A8B
S214401FF01A6300230D930D9B132B06D800BF0D9B31
S21440200001330D930D9B132BF8D9084B9847FBE3F0
S214402010C915400000400340D0000020E5144000B1
S214402020710A4000492000203D19400095184000A4
S214402030AD18400003230020AD0A400004230020D2
S21440204006200020462000204D194000F51840008C
S214402050904B196BC1F30A418F4B9B898F4A158869
S2144020606A189342AEBF89B2C5EB030399B28A4B56
S21440207098682844A9B10346864C226D03F8012B84
S2144020801A1AD2B28A42F8D30D44ADB2834B1D80A1
S214402090402906D1804BDA88814B1B882B449A42D4
S2144020A03EDC7D4B9D815B69F3B19847E0B97D4B43
S2144020B09847784B1A6B0E920E9A42F04F020E9249
S2144020C00E9A22F002020E920E9A1A6300230F9383
S2144020D00F9B132B00F2988300BF0F9B01330F9387
S2144020E00F9B132BF8D98FE36A4B1A6B1092109AFA
S2144020F042F04F021092109A22F002021092109A6A
S2144021001A6300231193119B132B06D800BF119B13
S21440211001331193119B132BF8D9634B984773E304
S2144021205D4B9B89AB4246D15B4B5B69E3B95D4BEC
S2144021309847584B1A6B1292129A42F04F021292DC
S214402140129A22F002021292129A1A6300231393F2
S214402150139B132B00F2588300BF139B013313933A
S214402160139B132BF8D94FE39847E0B94D4B98474C
S214402170484B1A6B1492149A42F04F021492149AD7
S21440218022F002021492149A1A6300231593159BA8
S214402190132B00F2398300BF159B01331593159B13
S2144021A0132BF8D930E33E4A3C4B1888118801443B
S2144021B0118000221A80374B1A6B1692169A42F0FC
S2144021C04F021692169A22F002021692169A1A6336
S2144021D000231793179B132B00F2168300BF179B01
S2144021E001331793179B132BF8D90DE3294B1B6B21
S2144021F013F0080F06D1DFF8B4C064460123254A21
S2144022001E461AE0234B1A6B0092009A42F04F0289
S2144022100092009A22F008020092009A1A63002365
S2144022200193019B132B00F2EF8200BF019B013309
S2144022300193019B132BF8D9E6E25FFA83F8916984
S2144022401F4606FA03F50D4200F0F181A1469900BB
S21440225001F1402101F54031086B10F0420F44D0A7
S214402260A268E368B4F810A0CAF3090A6068184484
S2144022700C460E6BC6F30A46002E00F0B682D11A04
S214402280B14200F2A982C9F80C20002940F0AA8287
S214402290B6E200BF00400340042300204620002052
S2144022A006200020AD184000F51840000820002009
S2144022B0226DC25401338B42FAD34046954B984721
S2144022C017B9B24540F2A082236B13F0200F40F0BE
S2144022D09B82914B5D61D9F80C30C9F8083048466E
S2144022E0002142468D4B98478EE2086B10F0010F56
S2144022F000F07381637CC3F38102033202F0030271
S21440230062F38303637413F0200F74D0002A36D030
S214402310BA0002F1402202F54032136B1893189B24
S21440232043F04F031893189B43F010031893189BE1
S214402330136300231993199B132B06D800BF199BD0
S21440234001331993199B132BF8D9136B1A931A9BC5
S21440235043F04F031A931A9B23F001031A931A9BD8
S214402360136300231B931B9B132B00F24D8200BF6D
S2144023701B9B01331B931B9B132BF8D944E2BA00DB
S21440238002F1402202F54032136B1C931C9B43F033
S2144023904F031C931C9B23F001031C931C9B13634D
S2144023A000231D931D9B132B06D800BF1D9B013396
S2144023B01D931D9B132BF8D9136B1E931E9B43F046
S2144023C04F031E931E9B43F020031E931E9B1363D6
S2144023D000231F931F9B132B06D800BF1F9B013360
S2144023E01F931F9B132BF8D999F811306FF34513A1
S2144023F089F8113008E2637CDB090AD0637C6FF30E
S214402400C7136374E368A360204600214246434BEB
S2144024109847D9F80C20D9F808309A4234D399F81E
S214402420113013F04C0F2FD1EFF3108372B6BFF379
S2144024305F8F00213A4A1170374A55612BB9012205
S214402440374B1A70BFF35F8F62B6BB0003F1402371
S21440245003F540331A6B2092209A42F04F022092A6
S214402460209A22F001022092209A1A630023219398
S214402470219B132B00F2C88100BF219B013321937F
S214402480219B132BF8D9BFE1B8F1000F00F08280F2
S214402490B8F1030F7ED099F8113013F00C0F43D0EB
S2144024A0BA0002F1402202F54032136B2293229B7F
S2144024B043F04F032293229B43F010032293229B28
S2144024C0136300232393239B132B06D800BF239B21
S2144024D001332393239B132BF8D9136B2493249B0C
S2144024E043F04F032493249B23F001032493249B1F
S2144024F0136300232593259B132B06D800BF259BEB
S21440250001332593259B132BF8D940460021054BD4
S214402510984779E18D1B4000004003404D1B40002A
S214402520D0000020591C400040460121674B984788
S21440253070B999F811306FF3C71389F81130D9F88C
S2144025400C30C9F80830484600214246604B984750
S214402550BB0003F1402303F540331A6B2692269ABC
S21440256042F04F022692269A22F001022692269A9E
S2144025701A6300232793279B132B06D800BF279B5D
S21440258001332793279B132BF8D9404600214F4B06
S214402590984739E1404601214C4B9847BB0003F130
S2144025A0402303F540331A6B2892289A42F04F0294
S2144025B02892289A22F001022892289A1A63002329
S2144025C02993299B132B00F21F8100BF299B0133BF
S2144025D02993299B132BF8D916E1096B11F0080FA4
S2144025E025D09A0002F1402202F54032136B2A931E
S2144025F02A9B43F04F032A932A9B23F008032A93EF
S2144026002A9B136300232B932B9B132B06D800BFC8
S2144026102B9B01332B932B9B132BF8D9136B03F473
S214402620E063B3F5807F00F0EF80136BECE001339E
S2144026301434042B7FF401AEDBE0264BDB6913F445
S214402640005F13D1234B9B6913F4007F04D0214BCA
S214402650DB6913F4007F09D11E4B9B6913F4806F2E
S21440266014D01C4BDB6913F4806F0FD0194C4FF419
S2144026701853236263610120174B98474FF48073C9
S214402680236223614FF400632361BDE0114B9B69D5
S21440269013F4807F24D00F4BDB6913F4807F1FD068
S2144026A00C4B4FF480721A625A614FF400521A6112
S2144026B04FF400721A614FF480621A612220074B71
S2144026C098470020044B98479EE000BF591C4000A6
S2144026D04D1B400000400340211840003D1540007F
S2144026E04B4BDB6913F4805F00F08E804FF48052D2
S2144026F0474B1A62654600240127464E0134E4B231
S214402700284639462246B0471435032CF6D1424B6C
S21440271098473F4B5A6822F001025A605A6822F0A6
S21440272002025A609A6842F480729A609A6822F06E
S2144027307F029A601A6B2C922C9A42F04F022C928F
S2144027402C9A22F4074222F080022C922C9A42F4D1
S21440275000422C922C9A1A6300232D932D9B132B08
S21440276006D800BF2D9B01332D932D9B132BF8D9F4
S214402770274B1A6B2E922E9A42F04F022E922E9A8A
S21440278042F400422E922E9A1A6300232F932F9BD8
S214402790132B06D800BF2F9B01332F932F9B132B51
S2144027A0F8D9EFF3108372B6BFF35F8F00211B4A50
S2144027B011700121164A116123B9184B1970BFF3E5
S2144027C05F8F62B6164B9847114B4FF480721A6172
S2144027D04FF400621A6117E03344C9F80C303146B2
S2144027E0002700E00127002362E540460D4B98474E
S2144027F067E5074B9B6913F4005F7FF41EAF21E744
S2144028004046084B98475FE530B0BDE8F08700BFCC
S214402810004003404D1B4000290A4000D0000020E5
S214402820951840008D1B400010B5EFF3108472B62B
S214402830BFF35F8F0022144B1A700120134B98474A
S2144028402220134B9847134B5A6F22F480725A67D4
S2144028505A6F42F400725A674FF480721A614FF40E
S21440286000521A614FF400721A614FF480621A6186
S2144028704FF400621A612CB90122034B1A70BFF361
S2144028805F8F62B610BD00BFD00000202118400008
S214402890E51440000040034038B5EFF3108472B6AC
S2144028A0BFF35F8F0025214B1D702220204B984799
S2144028B0204B9847204B502283F8222304225A600C
S2144028C02B461E489900CA1800EB8202527C1944D7
S2144028D000EB810102F083026FF3C7124A740133A2
S2144028E0032BEFD14FF48020154B98470023154A11
S2144028F01370EFF3108272B6BFF35F8F0B490B7005
S214402900114BD9780131D9702AB90122074B1A7078
S214402910BFF35F8F62B60D4B98472CB90122034B2D
S2144029201A70BFF35F8F62B638BD00BFD00000207C
S214402930E51440002101400000E100E008200020AE
S214402940B515400044200020EC22002029284000F5
S214402950002070470C4B5A6822F001025A609A6871
S21440296022F480729A6070B1996800F07F0221F07C
S2144029707F010A439A609A6842F480729A605A6865
S21440298042F001025A60704700400340054B5B68C6
S21440299013F0010F1DBF034B986800F07F00002026
S2144029A0704700BF00400340024B1868C0F30A005F
S2144029B0704700BF0040034000207047014B9860BE
S2144029C0998170470423002070B483B000F00F0351
S2144029D0032B66D89C0004F1402404F54034256B54
S2144029E015F4004F5FD101F00305012D03D1002BF4
S2144029F05BD0032B5BD01D1FEDB2012D8CBF402555
S214402A004FF40075954254DB5D1E05EB85052D4E53
S214402A1006EB85052E8A62F309062E826A7C02F052
S214402A207F026FF345126A74C00903D0D2B26FF3C7
S214402A3083026A74244A956A012606FA03F31D4304
S214402A409562956A25EA03039362236B0093009B85
S214402A5043F04F030093009B23F4074323F0800387
S214402A60009338B141F00402120202F4E06242F4EC
S214402A70004204E00A0202F4E06242F40042009B94
S214402A8013430093009B236300230193019B132B66
S214402A9011D800BF019B01330193019B132BF8D93A
S214402AA00BE000200AE0002008E0002006E00020BE
S214402AB004E0002002E0012000E0012003B070BCEA
S214402AC0704700BF082000200040034008B500F0D3
S214402AD00F02032A11D8930003F1402303F5403335
S214402AE0196B21F400411963501E00EB8000034B24
S214402AF003EB80000121024B984708BD08200020C8
S214402B004D1B400000F00F00032815D8431E03EB72
S214402B1083030A4A02EB83035B7C13F0200F09D140
S214402B200C30074B53F8203013F0280F0CBF002012
S214402B300120704701207047002070470820002081
S214402B400040034010B483B000F00F02032A5DD863
S214402B50EFF31081D1F1010138BF002172B6BFF307
S214402B605F8F00242E4B1C7010F0800F24D0531E15
S214402B7003EB83032B4800EB830302F10C042A4843
S214402B8050F8240010F0100F04D1587CC0F3810098
S214402B90012811DD587C40F020005874012303FAC8
S214402BA002F2214B1A61002932D001201C4B1870CA
S214402BB0BFF35F8F62B62EE0930003F1402303F528
S214402BC04033186B0090009840F04F0000900098FB
S214402BD040F0200000900098186300230193019B6A
S214402BE0132B06D800BF019B01330193019B132B87
S214402BF0F8D9012303FA02F20B4B1A6151B10120B6
S214402C00074B1870BFF35F8F62B604E0002002E007
S214402C10012000E0012003B05DF8044B704700BF80
S214402C20D00000200820002000400340F0B585B0CA
S214402C3000F00F00032859D8304C431E03EB8303A3
S214402C409D0061194B7C6FF345134B74820002F173
S214402C50402202F54032136B13F0200F48D0136B1E
S214402C600093009B43F04F030093009B23F0200308
S214402C700093009B136300230193019B132B06D8FC
S214402C8000BF019B01330193019B132BF8D91C4BCA
S214402C909E6A012707FA00F006439E629E6A26EA6D
S214402CA000009862136B0293029B43F04F0302931B
S214402CB0029B23F008030293029B136300230393B3
S214402CC0039B132B06D800BF039B01330393039B40
S214402CD0132BF8D94B7C13F0100F0BD04B7C6FF3B3
S214402CE004134B7463599847012004E0002002E027
S214402CF0012000E0012005B0F0BD00BF0820002004
S214402D00004003402DE9F04700F00F04032C00F28A
S214402D108880A50005F1402505F540352E6B16F454
S214402D20004F00F08180DFF82CC1661E06EB860659
S214402D30B7000CEB070696F8118018F0200F76D1F6
S214402D40D5F8308018F0200F74D1EFF31088D8F102
S214402D50010A38BF4FF0000A72B6BFF35F8F4FF0DC
S214402D600009DFF8E48088F8009096F8118018F0A3
S214402D70100F0BD0BAF1000F5FD00122324B1A7001
S214402D80BFF35F8F62B64846BDE8F08796F811807D
S214402D9048F0100886F81180BAF1000F08D04FF0BE
S214402DA00109DFF8A48088F80090BFF35F8F62B611
S214402DB07260B3600022F260089A4CF8072021B98E
S214402DC0D3F1010238BF002200E00122737C62F397
S214402DD086136FF3C7137374EFF3108672B6BFF3A0
S214402DE05F8F0022184B1A700122A240174B1A61BF
S214402DF010F0800F0CD02B6B13F0110F08D120462B
S214402E000121134B984718B120460021104B984794
S214402E10B6B901200C4B1870BFF35F8F62B6BDE8A1
S214402E20F0870020BDE8F0870020BDE8F08700204E
S214402E30BDE8F0870020BDE8F0870020BDE8F087B9
S214402E400120BDE8F08700BFD000002000400340CE
S214402E50591C400008200020F0B585B000F00F0453
S214402E60032C00F29080EFF3108372B6BFF35F8FAF
S214402E700021464A11700126A640454A56612BB9A4
S214402E800122424B1A70BFF35F8F62B610F0800F7C
S214402E9009D1A50005F1402505F540352B6B13F00B
S214402EA0420F57D15DE0A30003F1402303F54033C2
S214402EB01A6B12F0100F2AD08CB1032C0FD01A6B5D
S214402EC022F010021A631A6B12F0100FFBD11A6B25
S214402ED042F010021A631A6B12F0100FFBD01A6BF6
S214402EE00092009A42F04F020092009A22F010029E
S214402EF00092009A1A6300220192019A132A06D879
S214402F0000BF019A01320192019A132AF8D91A6B2E
S214402F100292029A42F04F020292029A22F0010274
S214402F200292029A1A6300230393039B132B06D83C
S214402F3000BF039B01330393039B132BF8D9631EF7
S214402F4003EB8303134A02EB83035A7C6FF383023B
S214402F505A7406E0104F2046B8472B6B13F0420FCA
S214402F60F9D10B4B9A6A32439A629A6A22EA06066B
S214402F709E62601E00EB8000064B03EB8000012142
S214402F802246064B984705B0F0BD00BFD000002053
S214402F9000400340082000208D1B40004D1B400091
S214402FA030B4B1F5A00F07D3A1F5A004C4F34F2465
S214402FB0C1F30801084D06E0A1F58004C4F34F2490
S214402FC0C1F30801054D00B1056002B1148003B19C
S214402FD0198030BC704700BF000C0E40000A0E40FF
S214402FE010B4074CA0420CBF01F5005101F520512A
S214402FF002EB412203B11A605DF8044B704700BFF4
S214403000000A0E4030B583B003460C46032914D858
S214403010C0F308029AB901A819460DF1020200232E
S214403020084DA847BDF80220019807212243064BC9
S2144030309847002818BF102002E0112000E0112019
S21440304003B030BDA12F4000ED1040002DE9F04FF9
S21440305087B004468B469246009305A821460DF15C
S214403060120204AB314CA0470598314B984701906B
S214403070059806212F4B9847BAF1000F4DD0DFF840
S214403080C08008F5FE75BDF81060C6F50076B245FE
S21440309038BF56460598BDF81210002203AB264CA2
S2144030A0A047BDF81070039C404621463A46DFF8DC
S2144030B09490C84708EB070059463246C847F0196F
S2144030C0C7F50072921B39194044314492B2C84742
S2144030D0A8F10403404653F8041F1A1A1151AB4294
S2144030E0F9D1009C34B105980321BDF81220134B4A
S2144030F0984705E005980121BDF812200F4B9847E8
S21440310080B9B344BDF812300133ADF81230002315
S214403110ADF81030BAEB060AB5D105980199054BC3
S2144031209847002007B0BDE8F08F00BFA12F4000B1
S214403130E5104000D1104000E12F4000ED10400067
S2144031404C2000204570400030B583B020F4FF5539
S21440315025F01F056FEA51346FEA443402B115601A
S21440316003B11C6001A829460DF102020023124D4E
S214403170A847002021466A460346A847BDF80220D5
S214403180BDF80030934210D908250C4C01982946CA
S214403190A04760B9BDF80220103292B2ADF80220C6
S2144031A0BDF80030934203D9F0E7002001E000E08C
S2144031B0002003B030BD00BFA12F4000ED104000FE
S2144031C030B583B020F4FF5525F01F056FEA513423
S2144031D06FEA443402B1156003B11C6001A8294669
S2144031E00DF102020023124DA847002021466A46F0
S2144031F00346A847BDF80220BDF80030934210D9D8
S21440320009250C4C01982946A04760B9BDF8022014
S214403210103292B2ADF80220BDF80030934203D986
S214403220F0E7002001E000E0002003B030BD00BF22
S214403230A12F4000ED10400000BFFDE710B5204B29
S214403240204A9A4212D9204B1D4A9A421FD2131D39
S2144032501E4CE41A24F00304043400231046194993
S2144032605A581A500433A342FAD110E0144B154A68
S2144032709A420CD2144A1946D31A1548184433B108
S21440328013469C1A245843F8044D9942F9D100BF7E
S214403290104B114A9A420BD2131F1049C91A21F0FB
S2144032A003011A1D1144002243F8042F8B42FBD120
S2144032B00B4B0C4A9A600C4B98470C4B9847FEE7D2
S2144032C000000020800941000C1A00200F1A002040
S2144032D07C094100042C00200C1A0020FF2B002003
S2144032E000ED00E0000040003D6F4000E934400043
S2144032F03D4B1B6B03F00303032B5DD8DFE803F065
S214403300020E2B2B394B5B6913F0800F14BF4FF422
S21440331000424FF4FA42364B1A604DE0324B1B6A7D
S21440332013F0807F03D0334A314B1A6044E0324A70
S2144033302F4B1A602C4B1B6A03F07003102B02D0E5
S214403340202B04D038E02D4A294B1A6034E0294A15
S214403350274B1A6030E0244B1B6A13F0807F03D063
S214403360244A234B1A6012E0234A214B1A601E4B14
S2144033701B6A03F07003102B02D0202B04D006E00B
S2144033801E4A1B4B1A6002E01A4A194B1A60164B2B
S2144033901B6B03F00303022B134B07BF986A996A13
S2144033A0D86AD96A124BC0F30A401A6800FB022258
S2144033B0C9B2B2FBF1F21A600B4B1B6B03F0700301
S2144033C0702B07D10A4B1A680D49A1FB020252081E
S2144033D01A607047044B196B054BC1F302111A680B
S2144033E0CA401A60704700BF00040E4010140E40DA
S2144033F0D4000020001BB70000093D0000127A00F0
S214403400ABAAAAAA1A4B984207D84FF08063194A2B
S214403410136002F5007213607047174B984206D847
S214403420164B144A136002F5007213607047144B33
S214403430984206D8134B0F4A136002F50072136089
S2144034407047114B984206D8104B0A4A136002F553
S2144034500072136070470E4B984294BF4FF004239F
S2144034600C4B044A136002F500721360704700BFAD
S214403470FF2C3101000A0E40FF5962020001000491
S214403480FF86930300020004FFB3C4040003000455
S214403490FFE0F50500050004094B1B6813B9094A0F
S2144034A0074B1A60064B1B681A180749914204DB03
S2144034B01046034A1060184670474FF0FF3070477A
S2144034C04C220020085C0020FC7F02204FF0FF309A
S2144034D0704700BF4FF400534B600020704700BF5A
S2144034E001207047002070472DE9F041204B984757
S2144034F0204B98470125204B1D70BFF35F8F62B667
S2144035001E4B984713201E4B98471E4B98471E4EFF
S2144035101E4C1F4F3046A047F5B11E4B1B685968DE
S2144035204A68013A4A60002A05DA184659681A4B32
S2144035309847C0B204E05A681368591C116018785E
S2144035400028E7D0B847054614482946A0472846ED
S214403550134B98470025DDE7B84780460028D9D06A
S2144035600E484146A04740460D4B9847D2E700BF1D
S21440357071014000F16E4000D00000202D10400048
S214403580E51440007167400038EC40008D6F400005
S21440359059694000901500200D73400048EC4000EB
S2144035A0716A40002DE9F04387B006460F4615463F
S2144035B03048314CA0473148A0470024DFF8D89027
S2144035C0DFF8B4804846315DC0470134142CF9D149
S2144035D02B48294B98470024DFF8BC90DFF89880AA
S2144035E04846395DC0470134142CF9D1254C204655
S2144035F0254B9847204639461422244FB847204644
S21440360031461422B847204601A9214B9847214805
S214403610194B98470DF103040DF117081E4F164E2F
S214403620384614F8011FB0474445F9D11B48124BA1
S21440363098470024184F104E3846295DB04701344D
S214403640142CF9D1002301AA995CEA5C4A40EA545A
S2144036500133142BF7D11248074B984700240E4FDE
S214403660054E3846295DB0470134142CF9D107B0D1
S214403670BDE8F0834CEC40008D6F400064EC4000A9
S21440368080EC4000FC2A0020F15A4000515C40008B
S214403690455D400094EC400078EC4000A8EC4000CB
S2144036A0BCEC40002DE9F04780460E462C4841468B
S2144036B02C4CA0472C48A0472C4C04F1010904F19F
S2144036C0140A2B4F274D384614F8011FA847544577
S2144036D0F9D12848234B9847274C09F1270A244F0D
S2144036E0204D384614F8011FA8475445F9D12348C1
S2144036F01C4B9847224C09F13B091D4F194D384643
S21440370014F8011FA8474C45F9D11E48154CA04750
S21440371017481D4B93F83C10A0471C48A0471C4B2D
S21440372003EB88180024124F0E4D08EB040338466E
S21440373093F82C10A8470134142CF6D11548094BA1
S214403740984700240A4F074D3846315DA847013454
S214403750142CF9D11048034B9847BDE8F08700BFBA
S214403760D0EC40008D6F4000F8EC4000B72A0020B7
S21440377078EC400010ED4000CB2A002028ED4000B9
S214403780DF2A002040ED4000B82A002058ED4000D7
S2144037901C23002070ED4000FCF640002DE9F04F61
S2144037A085B004460E469948994DA8479948214603
S2144037B0A84799483146A847012C05D0002C00F070
S2144037C01E81022C0ED01EE0944BB3F80090A9F157
S2144037D02D091FFA89F9924849468D4B9847002192
S2144037E0039116E08D4B1B88A3F15A091FFA89F9FD
S2144037F02D3B9BB203938A484946854DA847894846
S2144038000399A84705E088482146814B9847FF2002
S214403810F8E0012E0CD04EB1022E01D1122708E05E
S214403820824831467A4B9847FF20EBE00A2700E073
S2144038300E277F483946764DA84704EB440AAAEB44
S2144038400A1A764B1B889A44C7EB0A0A1FFA8AFA6A
S21440385078485146A847DFF80082774ED6F80630BB
S214403860C8F80030754D2846754B9847284641465F
S2144038700422DFF8E881C0472846F1195246C0477F
S214403880704F28463946704B9847DFF8C4A15346D8
S21440389053F8041FD3F804E09D68D8687961C7F8E8
S2144038A018E0FD61386219697962534653F8182F5B
S2144038B0D3F804E09868D968BA62C7F82CE0386351
S2144038C079631A69BA634FF0000B87F83CB0DFF8AB
S2144038D08481CDF800800AF12C0014213A463D231D
S2144038E0DFF87CC1E04758464146584B984709EBBD
S2144038F0060BDAF8003049F8063009F104018B1956
S214403900BA6AD7F82CA0D7F830C0786B8A51C3F87B
S21440391004A0C3F808C0D860BA6B1A6197F83C3068
S2144039208BF8183009F1190909EB0603D8F800207E
S214403930D8F80450D8F80800D8F80C1049F80620F3
S2144039405D609860D960D8F810201A61022C58D172
S2144039503E463F4F3B4653F8441F5D689C68D868D8
S2144039607161B561F4613062196971623B4653F822
S214403970582F5D689868D968B262F56230637163A3
S2144039801A69B2634FF0000886F83C80314D0095C6
S21440399007F16C00142132463D23DFF8C4C0E047EF
S2144039A001202946294B9847234BDDF80CC09C4400
S2144039B03A6C0399CA50081DC218B16AD6F82CA0B2
S2144039C0D6F83090776BC150C2F804A0C2F8089081
S2144039D0D760B16B116196F83C208CF81820039A9A
S2144039E002F11900C21829686F68AE68EC68C150C9
S2144039F057609660D46029691161404602E0002015
S214403A0000E0002005B0BDE8F08F00BF88ED400024
S214403A108D6F4000A0ED4000B4ED4000F62A002037
S214403A20CCED4000ECED40000CEE400028EE4000AF
S214403A3048EE400068EE40009C230020FC2A002010
S214403A40F15A4000B82A0020455D4000A5364000A7
S214403A501C230020B8290020FC2B0020515C40008D
S214403A60B15E40002DE9F04F83B006460C467C48D8
S214403A707C4DA8477C483146A8477C482146A84705
S214403A807B487C4B98471FFA80F8012C0CD04CB1F1
S214403A90022C01D1122508E077482146714B984701
S214403AA0FF20D9E00A2500E00E2574482946DFF8B5
S214403AB0B491C847C6EBC62AC6EB8A0AC6EBCA0A02
S214403AC01FFA8AFA6E4BB3F800B0D344C5EB0B0B23
S214403AD01FFA8BFB6B485946C8476B4F38466B4BB3
S214403AE098476B4C3846214604226A4DA8473846CC
S214403AF069490422A8473846211D5A46A847674DBB
S214403B0038462946664B9847C244063C14FA8AF41F
S214403B10644A2168D4F804E0A768E0685160C2F8B7
S214403B2008E0D7601061216951615068D2F808C03A
S214403B30D2F80CE017696861C5F818C0C5F81CE0F3
S214403B402F6250696862134653F8180FD3F804C0C2
S214403B50D3F808E0DF68A862C5F82CC0C5F830E0A6
S214403B606F631869A863237D85F83C304E4F0097F5
S214403B7002F12C0014212A463D234C4DA847002034
S214403B8039464B4B98474B48C847384604F11501D1
S214403B901422494B984710B14848C84702E0484865
S214403BA0304B984747482F4B9847022E50D1C6F186
S214403BB0010606EB860306EBC306B044424B13FAF7
S214403BC088F8384CD8F80020D8F80450D8F80800C0
S214403BD0D8F80C106264A564E0642165D8F810201B
S214403BE062652E4A606CA76CE66C256D50619761E5
S214403BF0D6611562606D5062234653F8580F5F6871
S214403C009E68DD689062D762166355631869906354
S214403C10002382F83C30244D009504F16C001421BA
S214403C203D23224CA04701202946214B9847274850
S214403C300C4B9847284608F1150114221E4B98470E
S214403C4018B11E48074B984702E01D48054B984759
S214403C501C48044B9847002003B0BDE8F08F00BFD7
S214403C6084EE40008D6F4000A0ED400098EE40008E
S214403C709E230020856C4000B0EE400048EE400099
S214403C80F62A0020D0EE4000FC2A0020F15A4000E0
S214403C90A2230020515C4000FC2B0020B82A0020C4
S214403CA0455D40001C230020B8290020B15E40003E
S214403CB0A5364000ECEE4000DD6F400010EF4000BF
S214403CC018EF4000FCF640009C23002020EF400008
S214403CD02DE9F04105460F4B1B888BB10E4C04F185
S214403CE0100203F1FF381FFA88F802EB08180B4E53
S214403CF028462168B04730B110344445F8D105E035
S214403D000020BDE8F0812046BDE8F0810020BDE8F7
S214403D10F08100BF9C060020280300209D744000D0
S214403D202DE9F04105460F4B1B888BB10E4C04F134
S214403D30080203F1FF381FFA88F802EBC8080B4E5A
S214403D4028462168B04730B108344445F8D105E0EC
S214403D500020BDE8F0812046BDE8F0810020BDE8A7
S214403D60F08100BF9C060020A80800209D744000FB
S214403D70044B03F58061002203F8012F8B42FBD1F0
S214403D80704700BF9B23002008B501200146014B29
S214403D90984708BD15684000C3693BB9C218926988
S214403DA032B9043B13F11C0FF8D103E000207047F2
S214403DB0002070470120704770B401F120030E6860
S214403DC04D688C68CA68066045608460C260103181
S214403DD010309942F3D10B68036070BC704700BF47
S214403DE0F0B400231E461F46C458CD582A19324404
S214403DF0944204D9954294BF0026012600E03E46F0
S214403E00C2500433242BEFD1F0BC7047F0B40023EB
S214403E101D460127C658741BCA58944205D31544FC
S214403E20AE422CBF0025012500E03D46A21AC250F6
S214403E300433242BEED1F0BC704700BF10B40168A9
S214403E4071B102E0596829B100E00022013940F81A
S214403E5022100DE043F8044F0132082AF2D107E061
S214403E604FF0FF330360034601224FF0FF34E9E78B
S214403E705DF8044B704700BF10B409230021026A66
S214403E8002F00104C90741EA520202620438013BCB
S214403E9001D02146F3E75DF8044B704700231946EE
S214403EA0C25841EA4201C150D10F0433242BF7D106
S214403EB0704700BF10B4046A0A6A944206D10023D1
S214403EC0C218D469CA18D269944205D0944294BFA5
S214403ED04FF0FF30012004E0043B13F1200FEFD1F8
S214403EE000205DF8044B70472DE9F0438BB0044644
S214403EF00F46104DDFF848900F4EDFF8488010E030
S214403F0001A83946C84701E001A8B047204601A9A4
S214403F10A8470028F8DA01A8C047204601A9074B61
S214403F20984720463946A8470028E9DA0BB0BDE84E
S214403F30F08300BFB53E40009D3E40000D3E400031
S214403F40B93D4000793E40002DE9F04192B004462C
S214403F50154600231E46CA5809A81A504DF8036055
S214403F600433242BF7D1204629461A4B9847DFF8CE
S214403F707880194F194E1EE0099B13F0010F0BD0A5
S214403F8068462146B84768462946B047002803DBBE
S214403F9068462946124B984720462146B847204651
S214403FA02946B047002803DB204629460C4B984755
S214403FB009A80C4B984709A8C0470028DCD0002326
S214403FC05DF80320E2500433242BF9D112B0BDE84B
S214403FD0F08100BFE93E4000E13D4000B53E400074
S214403FE00D3E4000793E4000993D40002DE9F041AD
S214403FF092B00446164600231A46C85809AD585192
S2144040004DF803200433242BF7D101230093204698
S2144040103146114B9847114F114DDFF848800DE05F
S214404020099B13F0010F03D0684621463246A84745
S214404030204621463246A84709A8C04709A8B8479F
S2144040400028EDD000235DF80320E2500433242BF3
S214404050F9D112B0BDE8F081E93E4000993D4000FC
S214404060493F4000793E4000F8B50646C36913BB59
S214404070034606259A6972B9013D043BB5F1FF3FF8
S214404080F8D114E0384655F8041DB047013CB4F169
S214404090FF3FF7D1F8BD0C4856F825100B4B984714
S2144040A06C1E0FD406EB8505094F084EEAE7094813
S2144040B0064B9847F8BD0448F169044B98470624D8
S2144040C00725EFE7F8BD00BFF8EF40008D6F4000D2
S2144040D0F0EF4000FCEF40002DE9F04FADF5457D98
S2144040E00646B4AC3D4D0FCD0FC40FCD0FC40FCD1B
S2144040F00FC495E80F0084E80F00B3AC24A8C3AF04
S2144041000825002109E042F8041F013BFBD154F882
S214404110043F40F8243BBC4202D002462B46F2E71E
S2144041201BAB23A9002243F8042F8B42FBD101236B
S2144041301B93336813F0010F3ED068463146284C37
S214404140A0476846274B984709A86946A047009B62
S21440415013F0010F32D10025234C6846A0470135A5
S214404160009B13F0010FF8D029E012A84946D0472B
S21440417012A8694632461D4B984712A81BA9B84755
S214404180A0B1002DD8BF00240CDD002412A809A938
S214404190B84738B112A801463246C0470134AC424F
S2144041A0F4D101E0AC4201D1002012E009F124092B
S2144041B0D945DAD101200CE000200AE000250DF1B7
S2144041C090090DF5347BDFF818A0094FDFF82480FE
S2144041D0CBE70DF5457DBDE8F08F00BF44EF4000CE
S2144041E0B93D40003D3E4000793E4000ED3F400036
S2144041F0B53E4000493F40002DE9F0438BB00023D8
S21440420001930293039304930593069307930893AD
S21440421009936D460DF110091A4CA0478046A047F9
S2144042200746A0470646A047C0B240EA0868FFB225
S21440423048EA07473602B6B23E4345F8046F4D4556
S214404240EBD1049B43F000430493019B43F00103EE
S2144042500AAC44F8243D0C4D02E0019B0233019326
S2144042602046A8470028F8D00848094B984701A898
S214404270084B984701200146074B98470BB0BDE8CE
S214404280F08300BFCD724000D940400000F04000AF
S2144042908D6F4000694040001568400070B510487A
S2144042A0104B9847104C04F10E0010494FF48072A2
S2144042B00F4B98470F4B19685E689D68D868C4F8DE
S2144042C01211C4F81661C4F81A51C4F81E011969CF
S2144042D0C4F8221101200146074B984770BD00BF25
S2144042E004F040008D6F40009C230020B82800203A
S2144042F045704000B82700201568400070B5124849
S214404300124B984701200146114B98471148124BD3
S214404310984728B111480D4CA0471148A04770BD9A
S214404320104B19788901104A8818104B1C688C501D
S21440433053F8041F5E689D68DC6841608660C5600F
S21440434004611969416170BD20F040008D6F4000E6
S21440435015684000A2230020856C400038F04000DD
S21440436058F04000F82A00201C230020A6230020F6
S2144043702DE9F04F83B005468A4616461C4607464A
S214404380DFF8AC90DFF8AC807B1B5FFA83FB14B1A0
S214404390012C21D0FBE740460DF10701C8479DF8A8
S2144043A007100029F3D00D2903D100BF00233B702E
S2144043B02FE00AF1FF339B4507DA4046164B9847F5
S2144043C09DF8073007F8013BDEE700233B701348B3
S2144043D03946114B98471CE0114B1B68586841689A
S2144043E001394160002905DA184659680D4B98474F
S2144043F0C3B204E05A681368591C11601B7802A8BF
S21440440000F8023D084B9847014630600748024B8B
S214404410984703B0BDE8F08F8D6F400068F04000CD
S214404420901500200D734000356F4000C0EF4000EF
S214404430B56F400048EC40002DE9F04F83B03A4855
S2144044403A4B98473A483B4B98470446002846D054
S2144044503948364B9847013C1FFA84FB0BF1020B58
S2144044604FF004094FF0010A304DDFF8C480334F57
S21440447033485146A847A9F10404A4B223464E4601
S2144044804C4508DA384618F80310A8470134A4B259
S2144044902346B442F6DB0AF1010A09F10409DA457B
S2144044A0E6D1284E214C284D3046A04700200146F4
S2144044B001AA0123A847019B5A1E042A02D9234871
S2144044C0A047F1E7013B0193194800EB8300204BDE
S2144044D09847204B98470446FF280CD105E01E48D5
S2144044E0124CA0471D48A0471AE01D480F4CA04755
S2144044F01A48A04714E01B4D29461B4B98470120FD
S21440450001461A4B9847281F114B984728B1184820
S214404510064CA0471148A04702E02046154B984756
S21440452003B0BDE8F08F00BF74F040008D6F4000D0
S214404530B82800206966400090F0400078EC4000C3
S214404540A8F04000B8F0400071434000D8F040006A
S214404550856C400029674000F0F0400008F14000BC
S2144045601CF14000A6230020F1664000156840007C
S21440457038F14000D560400010B504461B481C4B3F
S2144045809847A37A202B2FD8DFE803F011231D2964
S2144045902929292929292929292929292929292946
S2144045A02929292929172929292929292900262875
S2144045B01AD11048104B984710BD032814D10F4805
S2144045C00D4B984710BD08280ED10D480A4B98470A
S2144045D010BD262808D10748074B984710BD262807
S2144045E002D10848044B984710BD00BFA2230020C4
S2144045F0856C400058F140008D6F4000ACF14000A3
S214404600F8F1400034F2400010B582B0837A112BA6
S21440461008D10548017C427C837CC07C00900348DE
S214404620034CA04702B010BD9C23002088F24000F7
S2144046308D6F4000F0B583B004464349434B9847DE
S21440464018B94348434B98473BE0204642493F4BC6
S214404650984718B941483F4B984732E02046404972
S2144046603A4B984718B93F483A4B984729E0204676
S2144046703D49364B984718B93C48364B984720E05A
S21440468020463B49314B984718B93A48314B9847F2
S21440469017E0204638492D4B984718B937482D4BD8
S2144046A098470EE020463649284B984728B9354863
S2144046B0284DA8473448A84703E034482146254BB0
S2144046C098472046324B9847054628B931482146F8
S2144046D0204B9847002035E020462F4B984707460A
S2144046E028B92C4821461B4B984700202AE02B4BE4
S2144046F098472B4E304669682A892A4B98472A891C
S214404700294B1A807B6828469847B01D274B984708
S21440471040B1274821460F4B98472846254B984797
S214404720012406E024480B4B98472846234B9847DD
S21440473000242348074B984722480DF10701224B97
S2144047409847204603B0F0BDACF240009D74400050
S214404750C4F240008D6F4000F0F2400000F340008D
S2144047602CF340003CF3400070F3400078F34000E8
S214404770B4F340009CF34000BCF34000CCF3400050
S214404780F0F3400000F4400028F440004CF44000B1
S214404790D13C400064F44000213D4000713D400063
S2144047A09C23002045704000F62A0020856C40007F
S2144047B07CF44000794540008CF4400009464000B7
S2144047C09CF4400048EC4000B56F40002DE9F043B3
S2144047D091B005466C486D4B98476D486D4B984771
S2144047E028B16D48694CA0476C48A047C8E000BF58
S2144047F06B4B9B7B012B03D16A48644B9847BFE0C9
S2144048006948644B984748B16848624B984728B116
S21440481067485E4CA0476148A047B1E0654B01AC95
S214404820186859689A68DB680FC4634C01A821462B
S2144048301022624B98470646614821464FF48072E4
S214404840604B98471EBB604C604B1A685E68986821
S214404850D96822606660A060E1601A6922612046DD
S2144048605B4B98475B484B4B98475B485B494FF4DC
S2144048708072544B98475A4B1A685E689868D96855
S21440488022606660A060E1601A6922612EE05548A9
S214404890DFF8F890C84705A8292100221346DFF81C
S2144048A09081C04705A8504FB84701464F4B186007
S2144048B0454C05A822464E4EB0472046444B9847A6
S2144048C04448344B9847444844494FF480723D4BE3
S2144048D098474848C84705A8292100221346C0479C
S2144048E005A8B847014605A82246B0473648424B79
S2144048F098473848274CA047404838494FF480727C
S214404900304B984700223E4B1A703E48A04728B18D
S2144049103D481E4CA0473D48A04731E02A893C4BC5
S2144049201A801F4E30466968264CA0474FF4807761
S21440493006F1100028493A46A04706F58A702F49E6
S2144049403A46A0472E4E3078324C04EB80102C303E
S214404950314B9847337804EB8310183000212F4BA7
S2144049609847E87A297B2E4B98472E48074B98471E
S214404970012001462C4B9847E87A697B2B4B984799
S21440498011B0BDE8F08300BFBCF440008D6F40001E
S214404990ACF2400035464000D8F4400008F14000F4
S2144049A09C230020F8F4400070F340002CF34000B5
S2144049B030F54000F00F0020C2230020DD6F40009D
S2144049C0B828002045704000B82700205406002034
S2144049D0C562400058F54000B8290020AA230020B0
S2144049E0440B002060F54000B97640005822002075
S2144049F0E55D40007CF54000E1624000FC2A002076
S214404A00F82A0020B4F3400038F0400058F0400048
S214404A10F62A00201C23002031664000396C4000F6
S214404A209D37400094F5400015684000653A4000C8
S214404A30714340002DE9F04F8DB0044669486A4BFB
S214404A4098476A486A4B984782466A486A490022AD
S214404A506A4B98470B90FF2800F0C0800022684BB6
S214404A601A7001206749684B98470B9B4BB9674DB6
S214404A704FF080402946664B9847281D654B98471F
S214404A800BE0581E614DC0B22946634B98470B9BBE
S214404A90581EC0B2291D614B98476148614B9847E4
S214404AA028B16148504CA0476048A04796E0DFF8E0
S214404AB0D881C24422895E4B1A80A8F12605284632
S214404AC061685C4B98475C48474EB0474F4B1B6805
S214404AD048F81C3C5948B0476846292100221346EE
S214404AE0DFF894B1D8476846554A90470146A8F142
S214404AF0180768463A46534B98475348B047404A8B
S214404B0013789B01DFF8849103EB090001460430DB
S214404B102C313A464D4B98474D48B0470AF104076A
S214404B203846292100221346D8473846444B9847F2
S214404B3001305146DFF8D8B0D847A8F104002C4FD2
S214404B40B847404400F104085046B84740442D302A
S214404B5005F1020A401B5146D8475046B847344AEA
S214404B601080274A137809EB831018300021394B00
S214404B709847E07A217B384B98472F48B04701202A
S214404B800146364B9847A81DB84720B13448B04731
S214404B903448B04722E0E07A617B334B984728B1EF
S214404BA03248114CA0473248A04717E0314E0E4CD1
S214404BB0314D3046A047002001460BAA0123A847A6
S214404BC00B9B5A1E042A02D92C48A047F1E7581ED0
S214404BD0C0B22B4B98472B48034B98470DB0BDE8C7
S214404BE0F08F00BFB0F540008D6F4000BE23002020
S214404BF0856C4000B8280020CCF54000056E40008B
S214404C00F82A00209C2700207D6C40009E2700202C
S214404C10696C40004D664000F1664000B966400051
S214404C20F4F5400035464000FCF5400008F14000F1
S214404C30F62A00204570400020F6400038F6400036
S214404C40B9764000E55D400064F64000A53540007A
S214404C5084F64000396C40009D374000156840009F
S214404C60B0F6400058F04000653A4000CCF64000B0
S214404C70F0F6400000F7400071434000D8F0400096
S214404C802161400030F74000C22300201C23002052
S214404C90F0B587B006465B485B4B98475B485C4937
S214404CA000225C4B98470446FF2800F0A98000226B
S214404CB0594B1A7059485A4B984728B15948524C44
S214404CC0A0475948A0479BE0534D2878574B03EBE5
S214404CD080100021564B984701232B704F48504B6D
S214404CE0984728B14F48484CA0474F48A04787E0D0
S214404CF0494D28784D4B03EB801000214C4B98478C
S214404D0032894C4B1A804C4871684C4B984700236C
S214404D102B7064B94FF0804049494A4B98472878F1
S214404D20494B03EB80100430484B98470EE0013C5B
S214404D30E4B220464249464B9847374B1978424B97
S214404D4003EB811120460431424B98470122324BF7
S214404D501A7041482C4B9847684614210022134647
S214404D603E4CA04768463E4B9847014668463D4AFB
S214404D703D4B98473D4F244C384D3846A047002081
S214404D80014605AA0123A8470598421E042A02D9CF
S214404D903748A047F1E7C0B2364B984730B9364857
S214404DA00599194CA0472048A04729E0334C9DF868
S214404DB014002146324B9847F07A317B314B984766
S214404DC03148114B984701200146304B9847A4F193
S214404DD008002F4B984748B92E4821462E4B9847F7
S214404DE0F07A717B2D4B984738B103E00E48064B5E
S214404DF0984705E02A48044B98472A48024B98476C
S214404E0007B0F0BD5CF740008D6F4000B82800202A
S214404E10CCF54000056E4000F82A0020B4F3400070
S214404E203546400038F0400058F04000342300201B
S214404E30396C4000F62A00209C2300204570400034
S214404E40A6230020696C4000442300204D664000A5
S214404E50F1664000B966400038F6400071434000B5
S214404E60B976400088230020E55D400078F7400092
S214404E70D8F0400025644000A4F74000AA23002054
S214404E80CD6440009D374000CCF740001568400098
S214404E90856C4000E4F7400051744000653A40009D
S214404EA0CCF64000F8F7400010B504461348144BC3
S214404EB098471448144B984728B11448104CA047BC
S214404EC01348A04710BD13480F4B984718B11048D9
S214404ED00B4B984710BD22890F4B1A800F486168CC
S214404EE00F4B98470F48064CA047012001460E4BF3
S214404EF098470E48A0470E48A04710BD24F84000EB
S214404F008D6F400044F840003546400058F8400059
S214404F1058F0400080F84000F62A00209C230020ED
S214404F20457040008CF8400015684000B8F84000D6
S214404F30ECF8400010B504461348144B9847144804
S214404F40144B984728B11448104CA0471348A04724
S214404F5010BD13480F4B984718B110480B4B984755
S214404F6010BD22890F4B1A800F4861680F4B984737
S214404F700F48064CA047012001460E4B98470E4866
S214404F80A0470E48A04710BD30F940008D6F400046
S214404F9044F840003546400058F8400058F040007D
S214404FA054F94000F62A00209C230020457040001B
S214404FB068F940001568400088F94000ECF8400069
S214404FC02DE9F04F93B004469748984B9847984839
S214404FD098490022984B98471190FF2800F0C881C6
S214404FE00022964B1A7001209549964B9847119B84
S214404FF04BB9954D4FF080402946944B9847281D15
S214405000934B98470BE0581E8F4DC0B22946914BA4
S2144050109847119B581EC0B2291D8F4B98478F4802
S2144050208F4B984728B18F48804CA0478E48A04762
S2144050309EE122898D4B1A808D4D284661688D4BA6
S21440504098478D48DFF8E481C047DFF8F09199F83B
S214405050000080011830894F38440021884B98471B
S2144050608848C0476846292100221346DFF834B2F4
S214405070D8476846844B9847014668460BAADFF8EF
S21440508040A2D04705F122060DF12C0EBEE80F00D7
S214405090C5F82200C5F82610C5F82A20C5F82E30D7
S2144050A0DEF80000C5F832007848C0476846292137
S2144050B000221346D8476846734B984701466846D1
S2144050C00BAAD04705F10E0A0DF12C0EBEE80F00D4
S2144050D0C5F80E00C5F81210C5F81620C5F81A30E7
S2144050E0DEF80000C5F81E006948C04799F8003051
S2144050F09B01D819014604302C315246DFF8C4A132
S214405100D0476448C04799F800309B0103F1180027
S214405110F91838442C313246D0474B4B1B68C5F8FB
S2144051200A30DFF8A481414D5B4F4046A8473846D9
S214405130A8475A48A8475A48A8470020014610AAF8
S2144051400123584EB047109B012B02D0022B0ED0A5
S2144051501BE0554E112031463A4DA847032006F134
S2144051600B01A847012006F10D01A847F1E04E4E7D
S21440517010203146334DA847012006F10B01A847C1
S214405180022006F10D01A847E3E04848A847CCE7CF
S2144051904046A8473846A8474548A8474548A847F0
S2144051A00020014610AA01233E4EB047109B012B1B
S2144051B002D0022B05D009E002203F49234B9847F6
S2144051C0CCE000203C49214B9847C7E03748A847E9
S2144051D0DEE74046A8473846A8473848A8473548F7
S2144051E0A8470020014610AA01232E4EB047109B28
S2144051F0012B02D0022B05D009E001221C4B83F87C
S2144052004020B0E000221A4B83F84020ABE027480D
S214405210A847DEE70C4D4FF0804029460B4B984799
S214405220281D0B4B98475DE0C0F940008D6F40004D
S214405230B8280020E4F94000056E4000F82A002017
S2144052409C2700207D6C40009E270020696C400013
S2144052504D664000F1664000B9664000F4F54000F7
S2144052603546400038F0400058F04000F62A00200E
S2144052709C2300204570400008FA40001C23002074
S214405280396C400024FA4000B976400048FA4000A5
S21440529068FA400088FA4000ACFA4000C0FA400085
S2144052A0D8FA400071434000D6230020FCFA400064
S2144052B024FB40003CFB4000D82300208CFB4000F1
S2144052C0E55D4000A5354000FCF64000581E2A4DDE
S2144052D0C0B22946294B9847119B581EC0B2291D7B
S2144052E0274B9847E07A217B264B9847012001467A
S2144052F0254B98472548264B984728B12548264CA5
S214405300A0472648A04733E0E07A617B244B984785
S21440531028B12448204CA0472348A04728E0234EE5
S2144053201D4C234D3046A0470020014611AA0123BC
S214405330A847119B5A1E042A02D91E48A047F1E7E7
S214405340581EC0B20BA91C4B98471C48124B984796
S2144053500EE0DFF87480104D194F19E7DFF86880CB
S2144053600D4D184F35E7119B002B3FF453AFADE77B
S21440537013B0BDE8F08F00BF9E270020F1664000C6
S214405380B96640009D37400015684000A2230020C3
S214405390856C4000B4FB40008D6F400008F1400033
S2144053A0653A4000CCF64000F0F64000D0FB4000A6
S2144053B071434000D8F0400021624000F8FB4000B6
S2144053C010FB400060FB4000FCF640002DE9F04139
S2144053D080465948594B9847594F584D594C38462E
S2144053E0A8470020014622460123574EB04723686F
S2144053F05A1E042A02D95548A847F0E713B1013B84
S214405400504A13604F4B1878514B984740B9514813
S2144054104C4B1968494CA0474F48A047BDE8F0811F
S2144054204E484F4B984730B14E48444CA0474E48A4
S214405430A047BDE8F081B8F808204C4B1A804C4C89
S2144054402046D8F804104B4B98473E4B187804F14A
S2144054500E01494B9847024640B94848394B1968AF
S214405460364CA0473C48A047BDE8F0813F4B1888E3
S2144054702D30024490B218804149424B9847002450
S214405480414B1C7041482146414B98474148424950
S2144054902246424B9847424B1860FF284AD068B98C
S2144054A04FF080403F49374B9847374B18783E4B34
S2144054B003EB801004303D4B984710E00138C0B2F3
S2144054C038493B4B9847364B186801382E4B19786D
S2144054D0354B03EB8111C0B20431364B984798F8F0
S2144054E00B0098F80C10344B984701200146334B7C
S2144054F098473348334B984730B133480F4CA04712
S2144055001948A047BDE8F08198F80B0098F80D10B0
S2144055102E4B984730B12E48084CA0472D48A04700
S214405520BDE8F081074B18781E492B4B98472B480F
S214405530024B9847BDE8F0812CFC40008D6F400040
S21440554048FC40005422002071434000D8F0400000
S2144055506564400074FC400058F04000B4F34000DE
S21440556035464000A0FC400008F14000F62A0020E6
S2144055709C230020457040005D654000C4FC400010
S2144055809E230020696C4000F82A00203423002027
S214405590396C4000B8280020E4F94000056E400011
S2144055A050220020A6230020442300204D664000C1
S2144055B0F1664000B96640009D37400015684000DF
S2144055C0A2230020856C4000ECFC4000653A400079
S2144055D0CCF64000F0F64000A565400008FD4000CF
S2144055E038B504461848194B98471948194B9847F8
S2144055F028B11948154CA0471848A04738BD2289FD
S214405600174B1A80174D28466168174B984701205C
S2144056100146164B9847A81D154B984718B9154B89
S2144056209847154B984715480A4B984728B1144851
S214405630064CA0470948A04738BD1248034CA0472F
S2144056401148A04738BD00BF38FD40008D6F400070
S21440565044F840003546400058F8400058F04000B6
S214405660F62A00209C230020457040001568400024
S214405670856C400029634000FD62400060FD4000AC
S21440568074FD4000A4FD4000D8FD4000F8B5044637
S21440569000222A4B1A702A482A4B984728B12A4893
S2144056A02A4CA0472A48A047F8BD2289294B1A8091
S2144056B029486168294B984729482A4901222A4B9C
S2144056C09847FF2839D00138C5B228462749284B85
S2144056D0984728B927481D4CA0471D48A047F8BD05
S2144056E0164F3978244E06EB811128462C31234B31
S2144056F098473B7806EB831018300021204B98479C
S214405700E07A217B1F4B98471F48104B9847012053
S21440571001461E4B98471E481E4B984718B11E48D8
S2144057200A4B9847F8BDE07A617B1C4B984720B1FE
S2144057301B48064CA0471B48A047F8BDF82A002047
S214405740B4F3400035464000A0FC40008D6F40005A
S21440575008F14000F62A00209C23002045704000B7
S214405760B828002008FE4000056E4000A623002012
S214405770F166400028FE40001C230020B966400029
S214405780396C40009D37400054FE4000156840008C
S214405790A2230020856C400070FE4000653A400021
S2144057A0CCF64000F0F6400070B582B0044648485B
S2144057B0484B98470022484B1A704848484B9847F1
S2144057C028B14848434CA0474748A0477EE0228936
S2144057D0464B1A8046486168464B98474648474974
S2144057E00122474B98470190FF286FD068B94FF089
S2144057F080404449444B9847374B1878434B03EB1B
S21440580080100430424B98470FE00138C0B23D4903
S214405810404B9847019B581E2F4A11783B4A02EB53
S2144058208111C0B204313C4B98473C48294B9847BD
S214405830314D2846292100221346394EB047284686
S214405840384B98470146384E28463246374B98479D
S214405850214B1878364B03EB80100021354B984788
S214405860E07A217B344B984701200146334B9847DA
S214405870A6F10C00324B984728B13248154CA04749
S2144058801948A04722E0E07A617B2F4B984728B121
S2144058902E48104CA0472E48A04717E02D4E0D4CE2
S2144058A01F4D3046A0470020014601AA0123A847C5
S2144058B0019B5A1E042A02D92748A047F1E7581EE2
